:020000040800F2
:1000000068060020890100088D0100088F010008A2
:10001000910100089301000895010008000000000C
:100020000000000000000000000000009701000830
:1000300099010008000000009B0100089D010008D4
:100040009F0100089F0100089F0100089F01000810
:100050009F0100089F0100089F0100089F01000800
:100060009F0100089F0100089F0100089F010008F0
:100070009F0100089F0100089F0100089F010008E0
:100080009F0100089F0100089F0100089F010008D0
:100090009F0100089F0100089F0100089F010008C0
:1000A0009F0100089F0100089F0100089F010008B0
:1000B0009F0100089F0100089F0100089F010008A0
:1000C0009F0100089F0100089F0100089F01000890
:1000D0009F0100089F0100089F0100089F01000880
:1000E0009F0100089F0100089F01000800F002F82E
:1000F00000F03AF80AA090E8000C82448344AAF188
:100100000107DA4501D100F02FF8AFF2090EBAE885
:100110000F0013F0010F18BFFB1A43F0010318473B
:10012000000C0000200C0000103A24BF78C878C1F1
:10013000FAD8520724BF30C830C144BF04680C60ED
:10014000704700000023002400250026103A28BF35
:1001500078C1FBD8520728BF30C148BF0B60704739
:100160001FB51FBD10B510BD00F0B4FA1146FFF762
:10017000F7FF00F050F800F0D2FA03B4FFF7F2FFF7
:1001800003BC00F0D9FA000008480047FEE7FEE78C
:10019000FEE7FEE7FEE7FEE7FEE7FEE7FEE7FEE737
:1001A00003480449044A054B70470000ED0000086D
:1001B0006800002068060020680200206802002015
:1001C00020B14FF480712B4A116103E04FF0807130
:1001D000284A1161704720B14FF40071254A11611E
:1001E00003E04FF00071234A116170472248806993
:1001F00040F01000204988611E48406820F0FF0050
:100200001C4948600846406840F0110048604FF0C3
:100210004070086170470EB500F04EFAFFF7E6FF38
:10022000702000F02FF800F055F9044602A800F005
:100230001DF904461DE0694601A800F0E0F80446F7
:100240000CB9012100E000210846FFF7C4FF0B496B
:10025000009800F0BDFC01D2012000E0002005461E
:10026000FFF7AEFF00F017F9054800F026FA00F09E
:1002700020F9E0E700100140001002400000A04219
:1002800040420F0010B504469948047000F038F958
:1002900010BD70B50446204600F086FB0646954921
:1002A00000F0CAFB05464FF08F4100F0BBFA70BD6D
:1002B0002DE9F0410446204600F076FB07468E49C2
:1002C00000F0BAFB06464FF08F4100F0ABFA05464E
:1002D0008A4900F0AFFCBDE8F08110B500F047F9A5
:1002E00010BD70B503460C461546FF21002213E0F1
:1002F000985C414008260BE001F0800020B13120DD
:1003000080EA4100C1B201E04806010E701EC6B28B
:10031000002EF1DC501CC2B2A242E9DBA94201D09E
:10032000022070BD0020FCE7F8B50446002000F074
:1003300077F98DF80000002000F072F98DF80100C7
:10034000002000F06DF90646324602216846FFF7AC
:10035000C8FF05469DF801009DF8001040EA012005
:1003600020802846F8BD10B500F0E3F86049097810
:10037000012202EB4101C8B200F017F90446204601
:1003800010BD70B50446201200F00FF90546E0B22A
:1003900000F00BF90543284670BD10B500F0C9F810
:1003A000534909784906080E00F0FFF80446204634
:1003B00010BD7CB505460E46FFF7EFFF044647F635
:1003C000A240FFF7DEFF044354B9FFF7CCFF04431C
:1003D00001A8FFF7A9FF04436846FFF7A5FF044300
:1003E000FFF77BFF4CB9BDF80400FFF761FF286001
:1003F000BDF80000FFF74DFF306020467CBD2DE9C1
:10040000FC4105460E461427FFF7C7FF044647F692
:100410006600FFF7B6FF0443C4B908E0FFF7A3FF87
:10042000044604B908E04FF47A7000F046F9381E2B
:10043000A7F10101CFB2F1D100BF3CB901A8FFF78C
:1004400073FF04436846FFF76FFF0443FFF745FF60
:100450004CB9BDF80400FFF72BFF2860BDF8000081
:10046000FFF717FF30602046BDE8FC8170B50546F8
:10047000FFF793FF04464EF6C870FFF782FF044370
:100480002CB9FFF770FF2846FFF74EFF0446FFF731
:1004900024FF204670BD10B5FFF77FFF044624B946
:1004A0004BF29800FFF76DFF0443FFF716FF20465D
:1004B00010BD10B5FFF771FF044624B943F2175081
:1004C000FFF75FFF0443FFF708FF642000F0F5F833
:1004D000204610BD10B5FFF760FF044648F25D00EE
:1004E000FFF74FFF0443FFF7F8FE204610BD000062
:1004F000000000200000C84200002F4300003442EA
:100500006B48806940F0080069498861481569496D
:1005100008604010086067480C38006820F0FF0051
:1005200064490C3908600846006840F055000860CE
:10053000704710B54FF400705E490860012000F06C
:10054000BCF84FF480705B490860012000F0B5F8FA
:100550004FF00070574908600A2000F0AEF84FF0E5
:100560008070544908600A2000F0A7F810BD10B54B
:100570004FF080704F490860012000F09EF84FF066
:1005800000704C490860012000F097F84FF480702B
:10059000484908600A2000F090F84FF4007045497F
:1005A00008600A2000F089F810BD70B505460026E5
:1005B00080241DE004EA050020B94FF000703D4999
:1005C000086003E04FF400703A490860012000F031
:1005D00074F84FF4807037490860052000F06DF81A
:1005E0004FF0807033490860012000F066F8641015
:1005F000002CDFDC4FF400702E49086040100860CA
:10060000012000F05AF82B480838006800F4007008
:1006100000B101264FF0807026490860304670BD59
:1006200070B5054600264FF400702249086080240A
:1006300020E04FF480701F490860012000F03DF871
:1006400000BF1C480838006800F480700028F8D00B
:10065000032000F032F817480838006800F40070F2
:1006600000B126434FF0807012490860012000F06D
:1006700024F86410002CDCDC25B94FF000700D4923
:10068000086003E04FF400700A490860012000F0A0
:1006900014F84FF4807007490860052000F00DF849
:1006A0004FF0807003490860C0130860304670BD89
:1006B00000100240100C01407047002104E000BF10
:1006C00000BF00BF00BF491C8142F8D3704770478C
:1006D00070477047754600F02BF8AE460500694636
:1006E000534620F00700854618B020B5FFF758FDA7
:1006F000BDE820404FF000064FF000074FF0000823
:100700004FF0000B21F00701AC46ACE8C009ACE8A3
:10071000C009ACE8C009ACE8C0098D46704710B507
:100720000446AFF300802046BDE81040FFF725BD2A
:10073000004870470400002001491820ABBEFEE7C6
:10074000260002007047000090EA010F48BF81F0C8
:10075000004100F17682421A3CBF801A89184FEAA4
:10076000D0524FF07F4C1CEA410FA2EBD15318BF7F
:100770009CEA026F00F03B804FF0004C4CEA0020F6
:100780004CEA012121FA03FC10EB0C0C1ED202F101
:10079000FF325FEA1C2040EBC25038BF70471CF0AC
:1007A0007F0F4FEA400C18BFBCF17F4F38BF704736
:1007B000C3F12003994008BF20F00100BCF17F4F36
:1007C00038BF7047A0F1C04000F0FDB94FEA3C00CF
:1007D000000A40EBC25028BF1CF0FF0F4FEA400C4C
:1007E000E6D018BFBCF17F4F38BF7047EAE79CEAFC
:1007F000026F05D010EA5C0F08BF00F000407047A0
:1008000010B500F09AF900BF64FBBE3E401058BF1F
:10081000C0F14040491058BFC1F140418142EFF35F
:10082000008070474FF47F0C1CEAD0121EBF1CEAF8
:10083000D11392EA0C0F93EA0C0F00F0858090EA36
:10084000010F48BF42F4807240F4000C41F40000F4
:100850002CF07F4120F07F4000B58142A2EB0302E3
:100860000FF2081CACEB504EC0F100009EF800E007
:100870004FEA4E0E00FB0EFC38BF49004FEA2C1C1D
:1008800002F5FA020CFB0EF34FEACE1E4FEA112CD2
:100890004FEAC1210EEB635E42EB22420EFB0CFCE1
:1008A0004FEA1C5300FB03114FEA112C4FEA0131B0
:1008B0000EFB0CFC4FEADC4C00FB0C11C14228BFC4
:1008C00009184CEB03335DF804EB10EB410143EBEB
:1008D000C250B2F57C0F38BF704729D512F0F00F27
:1008E0001CBF00F1C04000F00040704700818283CF
:1008F0008485868788898B8C8D8E8F91929395962F
:1009000097999A9C9D9FA0A2A3A5A7A8AAACAEB0B8
:10091000B2B3B5B7B9BCBEC0C2C5C7C9CCCED1D4BD
:10092000D7D9DCDFE2E6E9ECF0F3F7FAFE000000ED
:100930004FEA400C0CF1807CBCF17E4F28BF704721
:10094000B0F1C04000F03FB990EA010F0CEAD113BA
:1009500048BF42F48072624538BF634507D213F442
:100960007F0F16D080EA010000F00040704710B5FC
:1009700000F0E3F8097EFC3E00F005B880EA0100D3
:1009800000F00040704780EA010000F0004000F0F5
:100990001AB912F47F0F04BF0248704780EA0100C1
:1009A00000F011B90000C07FB0FA80F310FA03F232
:1009B000C3F19D030AD0D90501EB1220530638BFBD
:1009C000704700F1010008BF20F0010070470000EF
:1009D00050EA010C00F113801CF5000F58BFBCF564
:1009E000000F01D48842704707D710F5000F58BF99
:1009F00011F5000F15D488427047894270471CF5E5
:100A0000000F04D5BCF5000FF7D5814270474FF0B9
:100A1000807C1CEB400F38BF1CEB410F01D28142A0
:100A2000704710B500F089F8922449004FF000504B
:100A30004FF08051FFF7EABE4FF47F0C1CEAD01252
:100A40001EBF1CEAD11392EA0C0F93EA0C0F00F0C0
:100A5000478090EA010F48BF42F480724FF0004C8B
:100A60004CEA00204CEA012102EB0302A0FB011337
:100A7000A2F50002002918BF43F001035B0028BF64
:100A80004FEA330342EB22425FEA132C4CEBC25095
:100A90002EBFBCEB436FB2F57C0F70474FEA036C7F
:100AA000BCF1004F08BF20F00100B2F57C0F38BF49
:100AB00070470BD582F0FF0212F5803FC8BF704728
:100AC00000F1C040D8BF00F00040704700F5000CB6
:100AD0005FEA4C0C48BF7047B0F1C04000F073B8FB
:100AE00090EA010F0CEAD11348BF42F480726245CC
:100AF00038BF634504D280EA010000F0004070472F
:100B000010B500F01AF800BF8900013E00F007B8E8
:100B100000F009B85FEA410C5FEA1C6C08D080EA7B
:100B2000010000F050B85FEA400C5FEA1C6CF6D19F
:100B30004FF00040A0F5800070470EF1020E2EF03D
:100B4000030E5EF8044B244204D44FEA4102B2F192
:100B50007F4F11D84FEA4003B3F17F4F0CD80ED12D
:100B60004FEAD07CB2F17F4F0CEB4C0C0CF1020C35
:100B700008BF4CEBD17C04E04FF0080C01E04FEAD9
:100B8000D17C0CEB4C0324FA03F404F00704B4F119
:100B9000040C06D20EEB840CBDE810404CF0010CA6
:100BA0006047DFE80CF0070802024FF00040A0F5B4
:100BB000800010BD0846420018BFD2F1807288BF85
:100BC00000F0004010BDFF2141EAD050C005704741
:100BD00051EA000C00F113801CF5000F58BFBCF562
:100BE000000F01D48142704707D711F5000F58BF9D
:100BF00010F5000F15D481427047894270471CF5EB
:100C0000000F04D5BCF5000FF7D5884270474FF0B0
:100C1000807C1CEB410F38BF1CEB400F01D2884297
:100C2000704780EA010081EA000180EA0100FFF7D5
:100C3000F8BE000090EA010F48BF81F000413FF587
:100C40008AAD421A04D882F00042A0EB020011449F
:100C50004FEAD0524FF07F4C1CEA410FA2EBD15328
:100C600018BF9CEA026F4AD04FF0004C4CEA0020BB
:100C70004CEA012121FA03FCB0EB0C0C0FD412F06A
:100C8000FE0F36D05FEA4C001DD5001240EBC2507B
:100C900038BF70471CF03F0F18BF70470BE0A2F140
:100CA00001025FEA1C2040EBC25038BF70471CF0C5
:100CB0007F0F18BF7047C3F12003994014BF401E37
:100CC00020F00100704780084FEA122308BF7047E8
:100CD000B0FA80FCA2EB0C02CCF1280C60FA0CF00C
:100CE00093EA122F04BF00EBC25070474FEAC37063
:100CF0007047130A5FEADC1008BF7047F6E79CEA0A
:100D0000026F04D010EA5C0F08BF0020704710B5D6
:100D1000FFF713FF40DFF63E81F000407047000010
:100D2000400D000800000020040000002801000819
:100D3000440D00080400002064060000440100087F
:040D400000000000AF
:04000005080000ED02
:00000001FF
