:020000040800F2
:10000000B004002001010008A31500084B110008EE
:10001000A1150008010200083918000800000000BE
:10002000000000000000000000000000C7150008EC
:100030006902000800000000C5150008C915000885
:100040001B0100081B0100081B0100081B01000820
:100050001B0100081B0100081B0100081B01000810
:100060001B0100081B0100081B0100081B01000800
:100070001B0100081B0100081B0100081B010008F0
:100080001B0100081B0100081B0100081B010008E0
:100090001B0100081B0100081B0100081B010008D0
:1000A0001B0100081B0100081B0100081B010008C0
:1000B0001B0100081B0100081B0100081B010008B0
:1000C0001B0100081B0100081B0100081B010008A0
:1000D0001B0100081B0100081B0100081B01000890
:1000E0001B0100081B0100081B010008DFF80CD0F1
:1000F00000F040F800480047E9190008B00400206B
:100100000648804706480047FEE7FEE7FEE7FEE7B1
:10011000FEE7FEE7FEE7FEE7FEE7FEE71D16000846
:10012000ED000008D2B201E000F8012B491EFBD21D
:1001300070470022F6E710B513460A4604461946F2
:10014000FFF7F0FF204610BD30B50B4601460020FA
:100150002022012409E021FA02F59D4205D303FA89
:1001600002F5491B04FA02F52844151EA2F101020A
:10017000F1DC30BD064C074D06E0E06840F00103BD
:1001800094E8070098471034AC42F6D3FFF7B2FF6B
:10019000181B0008381B000810B5012000F032F8C9
:1001A00000F4004010BD0000144910B540F2833245
:1001B0000A6038B1012808D0022818D0032819D0C5
:1001C000086805E044F2833001E045F283300860BE
:1001D00040F40040086081B2012000F02BF80220BA
:1001E00000F044F8002000F00DF8000910BD46F2C0
:1001F0008330ECE747F28330E9E70000000000209D
:10020000FEE700001FB5002103911023022203A97D
:100210008DE80E000246054801230188044800F0DD
:10022000BBF9BDF80C0004B040BA10BD04000020BA
:100230001C0000201FB5002203920A0A8DF80C2032
:100240008DF80D101023022203A98DE80E0002463E
:10025000034801230188034800F0AEFA1FBD0000E7
:10026000040000201C0000207047704770B5044651
:1002700000F0ECF80546601C02D004480078044405
:1002800000F0E4F8401BA042FAD370BD0800002043
:100290002DE9F84FDFF890A100220AF1040B144673
:1002A00001274FF00F090BF1040E00BF0B6807FA8E
:1002B00004F52B40AB4274D1DFF870C14E68A6EB59
:1002C0000C0866452BD00DDC032E34D005DC36B38C
:1002D000012E19D0022E2FD11BE0112E16D0122E76
:1002E0002AD119E0B8F5881F19D006DCB8F5803F8F
:1002F00015D0B8F5801F1FD111E0B8F5001F0ED042
:10030000B8F5041F18D10AE0CA6815E0CA68121DC2
:1003100012E0CA6808320FE0CA680C320CE08A6842
:100320002AB1012A4FF0080203D0456104E00422FB
:1003300002E0056100E00022FF2B01D8064601E043
:1003400000F104064FEA840501D9A5F12005D6F88D
:1003500000C009FA05F82CEA080C02FA05F54CEA87
:10036000050CC6F800C04D68ED0057D5304DAE699C
:1003700046F00106AE61AD6924F0030605F0010503
:1003800000952C4D06EB050CDCF80850A6074FEA4B
:10039000167809FA08F6B543274EB04202D1002676
:1003A00010E03BE0254EB04201D101260AE0244E88
:1003B000B04201D1022605E0224EB04201D103260F
:1003C00000E0042606FA08F62E43CCF808604D68D3
:1003D000DAF80060ED03554601D51E4300E09E4368
:1003E0002E604D68DBF80060AD035D4601D51E430D
:1003F00000E09E432E604D68DEF80060ED02754619
:1004000001D51E4300E09E432E604D68AD020E4DA7
:100410002E6801D51E4300E09E432E60641C102C04
:10042000FFF444AFBDE8F88F000401400000111054
:10043000001002400000014000080140000C014093
:1004400000100140001401400C0401400148806884
:10045000704700000800002070B504001BD094F81D
:100460003D00002520B984F83C50204600F042FAB7
:10047000242084F83D002068016821F0010101601A
:1004800000F0B0FB404A6168914201D83F4900E06A
:100490003F49884201D2012070BD3E492368B0FB2C
:1004A000F1F159606368934206D94FF4967359434A
:1004B0004FF47A73B1FBF3F12368491C1962616848
:1004C000914210D84900401EB0FBF1F2521CC2F319
:1004D0000B02042A01D2042022E0B0FBF1F0401C00
:1004E000C0F30B001CE0A368CBB301EBC10202EB2D
:1004F0000116421EB2FBF6F2521C42F48042120573
:1005000036D06BB301EBC10202EB0111401EB0FB10
:10051000F1F0401CC0F30B0040F4804040F4004078
:100520002168C861D4E90701084321680860D4E95B
:100530000310084321688860D4E905010843216855
:10054000C8602068016841F0010101602564202035
:1005500084F83D00256384F83E50002070BD00E023
:1005600008E001EB4106421EB2FBF6F2521CC6E760
:100570000120D5E701EB4101401EB0FBF1F0401C2A
:10058000C0F30B00CAE70000A086010080841E00B3
:1005900000093D0040420F002DE9FF4F83B09A460D
:1005A000DDE9118793460446DDF84090FFF74EFFE2
:1005B000054694F83D00202872D1192301227B4979
:1005C0002046009500F0C5FE0028F5D194F83C00C7
:1005D000012865D0012084F83C0020680168C90723
:1005E00003D1016841F0010101602068016821F434
:1005F00000610160222084F83D00402084F83E0024
:1006000000262664C4F82490A4F82A806848E06292
:10061000608D2085CDE9007553465A4620460499E1
:1006200000F0A8FD28B1206C84F83C60042851D06B
:1006300075E0208DDFF87C8168B1012814D0022894
:10064000206801681ED041F4806101602068416922
:10065000806900909BE02068416981690091016890
:1006600041F40071016092E02068016821F480612A
:10067000016072B62068416981690091016841F4A6
:1006800000710AE041F40061016072B620684169BE
:1006900081690091016821F48061016062B676E0B1
:1006A00081E0032850D801280BD002283B464FF0A8
:1006B000000241462046009512D000F04AFE70BB71
:1006C00013E02A463946204600F0B8FE30B1206CCF
:1006D000202824D0012007B0BDE8F08F20684BE02F
:1006E00000F037FED8B972B61BE02068016821F42B
:1006F0008061016072B620680169606A421C6262B2
:100700000170208D401E2085608D401E60853B4617
:10071000002241462046009500F01BFE08B1032050
:10072000D9E72068016841F400710160206801691F
:10073000606A421C62620170208D401E2085608DBF
:10074000401E608562B6C9E72A463946204600F059
:1007500075FE0028BBD120680169606A421C626294
:100760000170208D401E2085608D401E60852068B0
:100770004169C94349070AD40169606A421C62623F
:100780000170208D401E2085608D401E6085208D6B
:10079000002886D1202084F83D0084F83E6084F84B
:1007A0003C60002097E7022095E70000020010005F
:1007B0000000FFFF040001002DE9FF4F83B09A46BF
:1007C000DDE9118793460446DDF84090FFF73EFED1
:1007D000064694F83D0020287DD119230122434983
:1007E0002046009600F0B5FD00287CD194F83C002E
:1007F000012878D0012084F83C0020680168C907EE
:1008000003D1016841F0010101602068016821F411
:1008100000610160212084F83D00402084F83E0002
:1008200000252564C4F82490A4F82A803048E062AA
:10083000608D2085CDE9007653465A4620460499BE
:1008400000F010FD80B3206C84F83C50042848D0A0
:1008500008E032463946204600F021FE30B1206CD7
:10086000042839D0032007B0BDE8F08F606A411C2E
:100870006162216800780861208D401E80B2208569
:10088000618D491E618521684A69D24352070BD4A4
:1008900068B1606A421C626200780861208D401E67
:1008A0002085608D401E6085208D0028D1D1324684
:1008B0003946204600F026FD0028D0D154F83D0BE3
:1008C000016841F400710160202004F81E09E577F9
:1008D00065770020C7E706E02068016841F40071F1
:1008E00001600120BFE70220BDE700000200100008
:1008F0000000FFFF10B586B0002100910191029128
:10090000039100681349884222D1134CA06940F03A
:100910000800A061A069694600F0080004904FF447
:100920004070009012200190032003900B48FFF7C5
:10093000AFFC0B48416841F0E06141F002014160C9
:10094000E06940F40010E061E06900F400100490F8
:1009500006B010BD0054004000100240000C0140E1
:1009600000000140024881680278114481607047AC
:1009700008000020074810B5016841F0100101602F
:10098000032000F067F8002000F006F800F024F8DB
:10099000002010BD0020024070B50D4D04464FF4FC
:1009A0007A712878B1FBF0F00A490968B1FBF0F0E0
:1009B00000F0F0FA48B9102C07D200222146501E50
:1009C00000F028F800206C6070BD012070BD0000B0
:1009D00008000020140000200C4808B5816941F08F
:1009E00001018161816901F001010091C16941F05A
:1009F0008051C161C06900F0805000900448416896
:100A000021F0E06141F00071416008BD001002403A
:100A100000000140F0B40E4B1B680C46C3F30223E8
:100A2000C3F10705042D00D90425191D072901D29A
:100A3000002300E0DB1E012606FA05F1491E2140D5
:100A400099409E40761E16403143F0BC00F0AABD8E
:100A50000CED00E0064900F0070208684FF6FF03BE
:100A6000184040EA0220034A104308607047000023
:100A70000CED00E00000FA052DE9F047DFF85481A5
:100A800005460E46D8F8000000F00700B0420CD230
:100A9000D8F8001021F007013143C8F80010D8F849
:100AA000000000F00700B0426FD128684A4C81076F
:100AB00012D5400703D5606840F4E0606060287894
:100AC000000703D5606840F4605060606068A96802
:100AD00020F0F000084360602878C00744D06868C0
:100AE000012816D02168022816D0890700294CDA7F
:100AF000616821F0030101436160FFF7A7FC6968A9
:100B0000074641F2883001290ED00229814618D0CB
:100B100026E021688903E9E78901E7E7FFF796FC0A
:100B2000C11B494501D918E081466068C0F38100C6
:100B30000128F3D118E000BFFFF788FCC11B49452D
:100B40000BD86068C0F381000228F5D10CE000BF2B
:100B5000FFF77CFCC11B494502D90320BDE8F087A3
:100B6000606810F00C0FF3D1D8F80010404601F087
:100B70000701B1420BD9016821F00701314301603F
:100B8000006800F00700B04201D00120E6E72878B5
:100B9000400705D56068E96820F4E06008436060BC
:100BA0002878000706D56068296920F4605040EA7B
:100BB000C100606000F036F86168084AC1F30311B3
:100BC000515CC840064908600020FFF7E5FE0020A0
:100BD000C4E700000020024000100240B81A0008DC
:100BE000140000200448054900684968044AC1F31C
:100BF0000221515CC84070471400002000100240E0
:100C0000C81A00080448054900684968044AC1F345
:100C1000C221515CC84070471400002000100240FF
:100C2000C81A000812A185B00FC98DE80F0014A0E2
:100C3000144A006804905168134801F00C03042B17
:100C400010D0082B0ED1C1F38343C9031DF8030054
:100C50000AD5516804AAC1F34041515C0A4A504385
:100C6000B0FBF1F005B0704708494843FAE70000CF
:100C700002030405060708090A0B0C0D0E0F1010DD
:100C8000010200000010024000127A0000093D003D
:100C90002DE9F84F04460078B94DC00748D0686880
:100CA000C0F38100012807D06868C0F381000228E2
:100CB00009D16868C00306D52868800338D5606804
:100CC00000286FD034E06068B0F5803F0BD010B1E1
:100CD000B0F5A02F11D0286820F480302860286853
:100CE00020F4802002E0286840F4803028606068AA
:100CF00088B1FFF7ABFB064609E0286840F4802086
:100D00002860F0E7FFF7A2FB801B642875D82868ED
:100D10008003F7D50CE0FFF799FB064605E000BF1E
:100D2000FFF794FB801B6428F0D828688003F7D471
:100D30002078944E80074FF001094FF000083BD512
:100D4000686810F00C0F07D06868C0F381000228B3
:100D500009D16868C00306D42868800714D52069C3
:100D600001281FD110E02069B0B1C6F80090FFF74C
:100D70006DFB074605E000BFFFF768FBC01B0228BC
:100D8000C4D828688007F7D52868616920F0F80082
:100D900040EAC10028600FE0C6F80080FFF756FB6C
:100DA000074606E0E9E000BFFFF750FBC01B022842
:100DB00023D828688007F7D4207800072CD57248FC
:100DC000A169D9B1C0F80090FFF740FB074604E0E5
:100DD000FFF73CFBC01B02280FD8686A8007F7D5D5
:100DE0006A484FF4FA510068B0FBF1F0009000BF80
:100DF0000098411E0091FAD20EE080E0C0F8008019
:100E0000FFF724FB074604E0FFF720FBC01B022886
:100E100075D8686A8007F7D42078400760D5E869FC
:100E20000027C00008D4E86940F08050E861E86914
:100E3000012700F08050009055480168C90513D47F
:100E40000168834641F480710160FFF7FFFA824632
:100E500006E000BFFFF7FAFAA0EB0A0064284ED8BC
:100E6000DBF80000C005F5D5E06801280AD008B11C
:100E7000052813D0286A20F001002862286A20F093
:100E8000040002E0286A40F001002862E06841F2B4
:100E9000883B98B1FFF7DAFA82460BE0286A40F007
:100EA00004002862EEE700BFFFF7D0FAA0EB0A01CA
:100EB00059455AD8286A8007F6D50CE0FFF7C6FADC
:100EC000824605E0FFF7C2FAA0EB0A0159454CD86B
:100ED000286A8007F6D41FB1E86920F08050E861E5
:100EE000E06988B36968C1F38101022945D002280D
:100EF000C6F8608004D0FFF7A9FA044638E034E071
:100F0000FFF7A4FA074604E0FFF7A0FAC01B022887
:100F10002BD828688001F7D4206AB0F5803F05D12E
:100F20006868A16820F4003008436860D4E90801CB
:100F30000843696821F4741108436860C6F860903A
:100F4000FFF784FA044606E015E000BFFFF77EFADB
:100F5000001B022809D828688001F7D50BE000BFE4
:100F6000FFF774FA001B022802D90320BDE8F88FAE
:100F700028688001F4D40020F8E70120F6E700009B
:100F8000001002400000424280044242140000204F
:100F90000070004010B5401EB0F1807F01D30120E9
:100FA00010BD4FF0E02460610F21601700F0FAFAE5
:100FB0000020A06107202061002010BD70B5040052
:100FC00004D094F83900002510B106E0012070BD6E
:100FD00084F83850204600F023F8242084F83900A3
:100FE0002068C16821F40051C160204600F03AFB3E
:100FF0002068016921F4904101612068416921F074
:101000002A0141612068C16841F40051C160E56373
:10101000202084F8390084F83A00002070BD0000D8
:1010200030B585B0002400940194029403940068C4
:101030001449884223D11448C16941F40031C16187
:10104000C16901F400310491816941F004018161B9
:1010500080690E4D00F004000490042000900220EE
:1010600001900320039069462846FFF711F90820F4
:10107000CDE90004694628460294FFF709F905B056
:1010800030BD000000440040001002400008014054
:101090002DE9F843044690F839001F4616460D46E0
:1010A000202850D1A5B19EB194F8380001284AD02B
:1010B000012084F838004FF00008C4F83C8021205B
:1010C00084F83900FFF7C2F9A6848146E68426E059
:1010D0000120BDE8F883E08C401EE084A0684B4608
:1010E000B0F5805F4FF000024FF08001204600977E
:1010F00003D000F06FFBE8B90DE000F06BFBC8B95E
:1011000028882168C0F308004860206908B16D1C78
:1011100005E0AD1C03E0216815F8010B4860E08C88
:101120000028D8D14B46002240212046009700F0ED
:1011300051FB08B10320CCE7202084F8390084F863
:1011400038800020C5E70220C3E7FEE701684A694E
:10115000D24352050CD46FF480624A6104210164C9
:10116000002140F8301F2022427301730120704794
:10117000002070472DE9F84F0446006889460B9D12
:1011800001689846174641F4806101602068016853
:1011900041F48071016000954FF0011A0022514620
:1011A00020460A9B00F0D5F8F0BB216809F0FE004C
:1011B00008610AF1010B2B46594620460A9A00F0B5
:1011C000F9F818B1206C042812D03AE0206841697F
:1011D000806900902A4620460A9900F060F950B1D3
:1011E000206C04282DD12068016841F40071016051
:1011F0000120BDE8F88FFEB2B8F1010F09D02168D7
:10120000380A08612A4620460A9900F048F9002861
:10121000E6D1206806612A4620460A9900F03FF987
:101220000028DDD1206800E00BE0016841F4807106
:10123000016000950022514620460A9B00F089F883
:1012400008B10320D5E7216809F0FF0040F0010054
:1012500008612B46594620460A9A00F0ABF8002850
:10126000B0D1C6E72DE9F843044600680D46DDE934
:10127000089701689846164641F4807101604B4614
:1012800000224FF001112046009700F062F8E8B903
:10129000216805F0FE0008613B464A461849204691
:1012A00000F088F828B1206C04280FD10120BDE897
:1012B000F88320684169806900903A464946204693
:1012C00000F0EDF820B1206C042813D00320EEE7E5
:1012D000F5B2B8F1010F09D02168300A08613A4629
:1012E0004946204600F0DBF80028ECD12068056173
:1012F0000020DCE72068016841F400710160D5E757
:101300000200010070B516460D4604461AE020465C
:10131000FFF71CFF08B1012070BD681C12D025B179
:10132000FFF794F8801BA8420CD954F8400F40F006
:10133000200044F8100900202060202161732073F0
:10134000032070BD20684069C0434007DFD40020FF
:1013500070BD2DE9F0471E4690460D460446C1F388
:101360000747DDF8209012E0701C10D02EB1FFF777
:101370006DF8A0EB0900B04209D9002044F8300F05
:1013800020216173A07320730320BDE8F0872068DB
:10139000012F0AD0806925EA00000004000C06D065
:1013A00000214145E0D00020EFE74069F3E701214B
:1013B000F7E700002DE9F0479A4691460D460446AE
:1013C00000264FF02008C1F307472AE02068406953
:1013D000C043400512D42068016841F400710160E7
:1013E00021686FF48060486104202064266384F8DB
:1013F0003D8084F83C600120BDE8F087B9F1FF3FF3
:101400000FD0B9F1000F05D0FFF720F8A0EB0A01CB
:10141000494506D944F8306F84F80D8026730320BF
:10142000EAE72068012F07D0D0F8180025EA00006D
:101430000004000CE0D0C9E74069F7E72DE9F0416E
:10144000002590460E460446202721E04069C0430F
:10145000C0060CD421686FF0100048612564256334
:1014600084F83D7084F83C500120BDE8F0812EB135
:10147000FEF7ECFFA0EB0800B04209D954F8400F8A
:1014800040F0200044F80409677025700320ECE761
:1014900020684169C9434906D8D40020E5E770B502
:1014A00016460D4604461AE02046FFF74FFE08B1E7
:1014B000012070BD681C12D025B1FEF7C7FF801B4C
:1014C000A8420CD954F8400F40F0200044F810090D
:1014D00000202060202161732073032070BD2068EC
:1014E0004069C0430006DFD4002070BD0D4808B538
:1014F000816941F020018161816901F02001009141
:10150000816941F004018161816901F00401009168
:10151000816941F008018161806900F00800009054
:1015200008BD0000001002400D4810B50B490160D5
:101530000C49416000214FF480428160C0E90312F0
:1015400041618161C1610162FEF786FF002803D01D
:10155000BDE81040FEF789BE10BD000000540040F9
:101560001C000020A08601000C4810B50A4901604B
:101570004FF4E1314160002181600C22C160C0E97B
:1015800004128161C161FFF719FD002803D0BDE895
:101590001040FEF76ABE10BD0044004070000020FD
:1015A000FEE770470907090E002806DA00F00F0071
:1015B00000F1E02080F8141D704700F1E02080F871
:1015C0000014704770477047FFF7CCB930B58FB043
:1015D00028216846FEF7ADFD14210AA8FEF7A9FDF3
:1015E00001210804CDE90010002402940225049191
:1015F000CDE907504FF4E01009906846FFF748FB2B
:101600000F20CDE90A056802CDE90C4002210AA8A5
:101610000E94FFF731FA0FB030BD00000D4801689D
:1016200041F00101016041680B4A114041600168CD
:101630000A4A11400160016821F48021016041687B
:1016400021F4FE0141604FF41F0181600449C00391
:1016500008607047001002400000FFF8FFFFF6FE30
:1016600008ED00E02DE9F041044600680169E268F8
:1016700021F44051114301612169A0680843616967
:1016800008432168CA6841F20C639A430243CA6066
:1016900020684169A26921F44071114341614C49BC
:1016A00020686425322688423CD1FFF7ABFA00EB74
:1016B000C00101EB001061688900B0FBF1F7FFF792
:1016C000A1FA00EBC00101EB00106168B04689008F
:1016D000B0FBF1F0B0FBF5F06FF01801484307EBF9
:1016E000800106EB0110B0FBF5F000F0F006FFF70B
:1016F00089FA00EBC00101EB001061688900B0FBC2
:10170000F1F0B0FBF5F006EB0016FFF77BFA00EB0B
:10171000C00101EB001061688900B0FBF1F7FFF731
:1017200071FA3BE0FFF75EFA00EBC00101EB00103D
:1017300061688900B0FBF1F7FFF754FA00EBC001D4
:1017400001EB00106168B0468900B0FBF1F0B0FB1E
:10175000F5F06FF01801484307EB800106EB01102C
:10176000B0FBF5F000F0F006FFF73CFA00EBC0012B
:1017700001EB001061688900B0FBF1F0B0FBF5F0FF
:1017800006EB0016FFF72EFA00EBC00101EB00108C
:1017900061688900B0FBF1F7FFF724FA00EBC001A4
:1017A00001EB001061688900B0FBF1F0B0FBF5F0CF
:1017B0006FF01801484307EB800108EB0110B0FB04
:1017C000F5F0216800F00F0030448860BDE8F0813A
:1017D000003801402DE9F041984617460E46044670
:1017E000069D1DE0681C1BD02DB1FEF72FFEA0EB5F
:1017F0000800A84214D92068C16821F4D071C160E2
:101800002068416921F001014161202084F83900FC
:1018100084F83A00002084F838000320BDE8F08105
:101820002068006836EA000004D00020B842D9D011
:101830000020F3E70120F9E7FEE700000FB4054BB5
:1018400010B503A9044A029800F018F810BC5DF81E
:1018500014FB0000D11900081800002002E008C89D
:10186000121F08C1002AFAD170477047002001E01A
:1018700001C1121F002AFBD1704700002DE9FF4F64
:1018800089B09B460446002506E025280BD05A4621
:101890000B999047641C6D1C20780028F5D10DB081
:1018A0002846BDE8F08F0027B8460122474900E0EE
:1018B000074314F8013F203B02FA03F00842F7D136
:1018C00020782E2819D114F8010F47F004072A2890
:1018D0000ED06FF02F022078A0F1300109290CD82A
:1018E00008EB880102EB410100EB0108641CF2E700
:1018F0000A98641C50F8048B0A9020780028CED0F7
:10190000642808D0692806D075281ED05A460B993D
:1019100090476D1C58E00A994FF00A0901C90A91D5
:10192000002802DA40422D2102E0390504D52B219E
:101930008DF82010012103E0F90704D02021F7E7FA
:101940008A4608AE0DE00021FAE70A994FF00A092D
:1019500001C90A91F7E74946FEF7F6FB303106F870
:10196000011D0028F7D1ADEB060000F12009780732
:1019700001D44FF00108C84502DDA8EB090000E0E2
:1019800000208046002706E008A85A46C05D0B9953
:1019900090476D1C7F1C5745F6DB04E030205A460B
:1019A0000B9990476D1CB8F10001A8F10108F5DC16
:1019B00005E016F8010B5A460B9990476D1CB9F1DA
:1019C0000001A9F10109F4DC641C65E709280100A4
:1019D00013B54FF6FF73012269460248FFF758FB23
:1019E00000981CBD70000020F0B585B0FEF7C2FF66
:1019F000FFF7ECFDFFF77AFDFFF7B6FDFFF794FD6B
:101A00001BA0FFF71BFFFEF7C7FBB0F5004F05D08B
:101A10001EA0FFF713FF05B00020F0BDFEF7BCFBD2
:101A20001F4908801FA0FFF709FF4FF4FA77002035
:101A3000FEF7BAFB06460120FEF7B6FB054602207C
:101A4000FEF7B2FB04460320FEF7AEFB4100CDE9F2
:101A50000301680000906200CDE9014272002B464C
:101A600031461448FFF7EAFE3846FEF7FFFBDEE793
:101A70000A4144533130313520546573742050721B
:101A80006F6772616D202E2E2E0D0A000A4144539D
:101A900031303135204572726F720D0A000000003E
:101AA000060000200A41445331303135204F4B0DA0
:101AB0000A000000D01A000800000000000000002A
:101AC00001020304060708090000000001020304E4
:101AD0000A41494E30203D2025642825646D762931
:101AE000202C41494E31203D2025642825646D7607
:101AF00029202C41494E32203D2025642825646D43
:101B000076292041494E33203D2025642825646DE7
:101B100076290A0D00000000381B00080000002094
:101B20001C0000005C180008541B00081C0000206A
:101B3000940400006C1800080000000090000000F1
:101B400001000000100000000000000000A24A0494
:041B50000000000091
:04000005080000ED02
:00000001FF
